:020000040800F2
:2000000000200020E51600082D1700082D1700082D1700082D1700082D1700080000000021
:200020000000000000000000000000002D1700082D170008000000002D1700082D17000890
:200040002D1700082D1700082D170008890900082D1700082D1700082D1700082D170008F2
:200060002D1700082D1700082D1700082D1700082D1700082D1700082D1700082D17000820
:200080002D1700082D1700082D170008000000000000000000000000000000002D17000830
:2000A0002D1700082D1700082D1700082D1700082D1700082D1700082D1700082D170008E0
:2000C0002D17000800000000000000002D1700082D17000801040008290400082D170008AE
:2000E0002D1700082D1700082D17000800000000000000000000000000000000000000001C
:200100000000000000000000000000000000000000000000000000002D1700082D17000847
:200120000000000000000000000000000000000000000000000000000000000000000000BF
:2001400000000000000000000000000000000000000000000000000000000000000000009F
:2001600000000000000000000000000000000000000000000000000000000000000000007F
:2001800000000000000000000000000000000000000000000000000000000000000000005F
:2001A00000000000000000000000000000000000000000000000000000000000000000003F
:2001C0000000000000000000000000005FF808F110B5054C237833B9044B13B10448AFF331
:2001E00000800123237010BD34040020000000009418000808B5034B1BB103490348AFF3DF
:20020000008008BD00000000380400209418000808B50B4800F007FE0A4800F004FE0A48EE
:2002200000F001FE094800F0FEFD094800F0FBFD084800F0F8FD084800F0F5FD08BD00BF6F
:2002400048190008641900087019000890190008A8190008C8190008E019000808B500F00E
:200260006BFA544AD36843F40053D360A2F57442D36843F40053D3604F4B504A1A60504BF5
:20028000504A1A60504800F0C7FC504B27221A7000234F4A13704F4A1380202000F0E0FB1B
:2002A000FFF7B6FF0FE0494B27221A70484C01232370494B20221A80484800F0B4FD00232E
:2002C0002370FFF7A5FF414B01221A7000F0CAF8434B187042381328F5D801A353F820F06F
:2002E000A7020008C7020008C7020008C7020008C7020008C70200087B030008C7020008E1
:20030000C7020008C7020008C7020008C7020008C7020008C702000831030008C7020008EA
:200320005F030008C70200086B03000895030008264B23221A70264C27232370264B20222A
:200340001A80284800F06FFD00F014FF0146264800F069FD00232370FFF75AFFB3E723481F
:2003600000F061FDFFF754FFADE7214800F05BFD00F0EEFBFFF74CFFA5E7144B01221A70EF
:20038000FFF746FF1B4B19681B4800F04CFD00F051FA98E70E4C0C232370184A138843F495
:2003A0008073138000F08CFB00232370FFF730FF89E700BF003801409006002051040008AA
:2003C0008C06002065040008AC1800085D0400207C0400205404002056040020C418000837
:2003E0006A040020E4180008F0180008001900081819000870040020301900086C0400208C
:20040000074B1B6813F0200F09D0054B5968054AB2F80031581CA2F80001DBB2D154704749
:200420000038014088050020074B1B6813F0200F09D0054B5968054AB2F80031581CA2F86D
:200440000001DBB2D15470470044004080040020034B5860024B1B6813F0400FFAD0704761
:2004600000380140064BB3F80021B3F802319A42F8D0034A591CA2F80211DBB2D05C704785
:2004800088050020024B4FF000629A60704700BF00ED00E030B43C4B1B6803F5A843603320
:2004A0003A4AA2FB034149090C46C1EB01118D00591B8171A2FB04125209C2EB0212910022
:2004C000621A42713249A1FB0321C90A314AA2FB0142120902EB4202D4000A1B02712E4955
:2004E000A1FB0321090C0C1D2C4AA2FB0452A51A02EB55029208C2EBC202A21AC271284A26
:20050000A2FB0323DB0D9B0003F2B273254AA2FB0142D20940F2B55404FB1212B2F5896F54
:200520001ED3511E204CA4FB0154091B04EB5104240A2344038040F26D1303FB04F3022CA6
:2005400016D901210B44D21A00230B2B16D81749C95C012B0ED08A4210D3521A0133F4E74F
:20056000114CA4FB0214111B04EB5104240AE0E70021E7E7022CEED10131ECE701338370FC
:200580000132C27030BC70477004002089888888C5B3A291ABAAAAAA07452EC225499224EA
:2005A000792D031173B06D1661F31967781A00080388A3F2B27340F63A0293423FD8F0B426
:2005C0008678002E39D0C578BDB39C0840F2B55101FB04F403F0030240F26D1101FB02F1D2
:2005E000022A04D9012319442144002302E00023F9E723460B2B0BD85C1CB44208D2104FDB
:20060000FF5C3944012BF4D1022AF2D10131F0E76B18013B01794279C2EB021294004FF48D
:20062000616202FB014182791144064D05FB0313A3F5A843603B044A1360F0BC7047704706
:20064000781A0008805101007004002008B5334B4FF001121A60314B1B6813F4003FFAD084
:200660002E4B2F4A5A601A6842F080721A602B4B1B6813F0007FFAD0284B5B6813F0080F19
:20068000FAD0264BDA6942F0C052DA6125490A6842F480720A604FF480321A6248F201122D
:2006A0001A621E4B1B6A13F0020FFAD01E4B5B6813F0200FFAD01C4B10225A6000229A605B
:2006C00040F6FF71D960012119609A61DA6117490A605A60144B5B6813F0200FFAD0114A6D
:2006E000136823F480731360104B00221A60104840F2E1730380072383700323C370012310
:20070000C371152303713423437117238371FFF74FFF084B08221A6008BD00BF00100240AF
:20072000020005000070004000280040580400206004002000E100E010B52D4B44F21D0247
:200740009A612C4A2C4B13602C4B2D49196003F5806301F13B41333959604FF0443119603D
:200760004FF4807119614FF400711961254B01211970772324490B7024490B70244BFF2189
:200780001980936813F0010F2ED1224B00221A700024204B5C70FFF759FF1F4BA3F80241A9
:2007A000A3F800411D4B04225A601D4B4FF4E1321A6008229A715C711C711A4BD020986001
:2007C0002C21D960184B20225A60184AA2F80241A2F80041064A164CD461A2F5E632906094
:2007E000D16040225A6010BD0A4B01221A70CFE7001002400008014048894444000C0140E6
:20080000444444895C0400207C0400205D04002056040020680400208805002000000140EE
:20082000740400200038014000E100E0800400200000021870B584B00C4B1968C9080C48D2
:2008400000F0F1FA0B4C2046FFF724FE2188A278E378E07925796679A47903940296019512
:200860000090054800F0DFFA04B070BD58040020F819000860040020081A00081C4B5B7874
:20088000023B262B33D8DFE803F01432323218323232323232321E32323232323232323205
:2008A000323232323232323232323232323232322500104B77221A7070470F4A138823F4B3
:2008C0008073138070470D4B01221A70094B10221A7070470A4B4FF400721A614FF4807255
:2008E0001A61A3F560434CF6CC421A60FEE77047680400205D0400206C0400207C0400209F
:200900000010014008B51E4B1B78F92B02D802331B4A13701B4B9B6813F0010F0ED0184BF5
:200920001B7813F0010F05D0182B1BD9144B00225A7017E0124B01221A7013E0104B1A78D9
:2009400012F0010F13D019465B785B00DBB24B70082A04D9172A06D843F001034B70084B5A
:2009600000221A7008BD064B00225A70F7E7202AF8D1FFF783FF024B01225A70F2E700BF8E
:20098000680400200008014008B5284B00225A60274A13680133136013F0070F03D1254A87
:2009A000136801331360244B1B8813B1013B224A1380224B1B883BB1013B9BB21F4A138083
:2009C00013B91F4B00221A701E4B1B781C4A127813421AD01C4A4FF4007111611B4A12788F
:2009E000134217D0184A4FF4807111615B00DBB2144A137013B9134601221A70FFF782FFA1
:200A00000B4B1B78032B0AD008BD0F4A4FF000711161E3E70C4A4FF080711161E6E70C4AC0
:200A2000138843F480631380EEE700BF00280040580400207004002084050020560400203F
:200A40007C0400205C040020001001405D0400206C040020014B1880704700BF8405002011
:200A600008B5FFF7F7FF024B1B88002BFBD108BD8405002038B50D4800F0D5F90C4C216897
:200A80000C4800F0D0F90C4D2179284600F0CBF96179284600F0C7F9A179284600F0C3F908
:200AA000E179064800F0BFF938BD00BF441A000874040020641A00086C1A0008701A00088E
:200AC00008B5FFF7D7FF1D4AD36843F40053D3601B4B1A8812F4807F2FD01A4BB3F8001101
:200AE000B3F8023199420CD01749096811F0400F07D01449581CA1F80201DBB2C95C124BED
:200B00005960124BB3F80011B3F802319942DFD00A49096811F0400FDAD00C49581CA1F87B
:200B20000201DBB2CB5C032B02D0044A5360CFE722F48072024B1A80CAE708BD004400405E
:200B40006C04002080040020003801408805002070B500F061FD054698B900F0BDFD064636
:200B60000146134800F05FF9124800F05CF9FFF779FC512817D05428F9D100F0FDFC2C4680
:200B80000BE000F02BFB2844C0B210E0204600F097FD00F06FFD0134E4B2B442F6D3064868
:200BA00000F041F9E3E700F019FB2844C0B270BD201A00082C1A0008DC19000830B593B07D
:200BC000054602A812AC44F8440D402100F03AF92946204600F064F9C0B213B030BD00000D
:200BE00010B504460A2807D0094B1B6843B1591C074A11601C7010BD0D20FFF7F1FFF3E795
:200C0000044B1B68002BF6D020469847F3E700BF500400209006002010B5044602E00134E3
:200C2000FFF7DEFF20780028F9D110BD2DE9F04786B00646019102E0FFF7D2FF2646741C84
:200C40003078002800F0EC802528F5D1B21C7078302804D02D2806D0002500240FE0F21C02
:200C6000B0780125F9E7F21CB0780225F5E704EB840463001844A0F1300410780132A0F1C6
:200C80003003DBB2092BF2D96C2803D04C2801D0164603E045F00405561C1078002800F05A
:200CA000BF80602814D9A0F12003DBB2A3F14202162A41D8DFE802F043333A404040404065
:200CC0004040404040464040400E403A40403D000346EBE7019B1A1D0192D3F80090002786
:200CE00000E0013719F80730002BFAD103E02020FFF776FF474615F0020F04D107F1010897
:200D0000A742F4D347464846FFF786FF03E02020FFF766FF2F467D1CA742F8D38FE7019B3B
:200D20001A1D01921878FFF75BFF88E74FF00A0E0AE04FF0100E07E0FFF752FF7FE74FF029
:200D4000020E01E04FF0080E15F0040F08D0019A111D01911168442B0ED04FF0000C20E0F1
:200D6000442B04D0019A111D01911168F3E7019A111D01911168EEE70029EEDA494245F028
:200D80000805EAE727273B44DBB20CF1010730330DF11808E04408F8103C72B10F2F0CD8E0
:200DA000BC46B1FBFEF20EFB1213DBB21146092BEBD97828E6D00727E5E715F0080F06D049
:200DC00006AB1F442D2307F8103C0CF1020715F0010F03D04FF0300AB84606E04FF0200AB0
:200DE000FAE75046FFF7FCFEC84615F0020F04D108F10109A045F4D3C846013F06AB3B4466
:200E000013F8100CFFF7ECFE002FF6D103E02020FFF7E6FEA84608F10105A045F7D30EE747
:200E200006B0BDE8F0870FB400B583B004A951F8040B0191FFF7FAFE03B05DF804EB04B005
:200E400070470000F8B5154B1B6823B30D4606460024124B1B6898470346D0B10D2812D012
:200E600008280AD01F28F4DD6B1EA342F1DD671C3055FFF7B5FE3C46EBE7002CF2D0013CE4
:200E8000FFF7AEFEE5E7002333550A20FFF7A8FE01231846F8BD0023FBE700BF8C060020C6
:200EA00070B400230B6001E00132026002681378202BF9D02D2B0AD00026302B0CD0A3F1DE
:200EC0003002D2B2092A44D80A25002427E0531C036053780126F0E703685A1C02605B7802
:200EE000622B06D0782B09D1531C036053781025EBE7531C036053780225E6E7202B24D995
:200F0000A3F13002D2B2092A21D80825DDE7AA4222D204FB052403685A1C02605B78202B01
:200F20000ED9602B01D9203BDBB2A3F13002D2B2102AECD9373BDAB2092AE8D8002009E03A
:200F400006B164420C60012004E0012002E0002000E0002070BC70470020FBE700207047E4
:200F6000002070470020704708B50248FFF75BFF002008BD801B000808B50248FFF753FF95
:200F8000002008BD8C1B000808B50248FFF74BFF002008BD981B000808B50248FFF743FF97
:200FA000002008BD741B000800B583B00648FFF73AFF01A8FFF702FE01990448FFF733FFA3
:200FC000002003B05DF804FB541B0008641B000810B50B48FFF727FF00240AE0094B53F80B
:200FE00024301A6893F824100748FFF71CFF0134E4B2012CF2D90548FFF715FF10BD00BF56
:20100000A41B000800000020B41B0008C01B000808B50C48FFF707FF0B48FFF704FF0B4883
:20102000FFF701FF0A48FFF7FEFE0A48FFF7FBFE0948FFF7F8FE0948FFF7F5FE0848FFF778
:20104000F2FE08BDA41A0008B01A0008C01A0008CC1A0008D81A0008E41A0008F41A00085D
:20106000041B000810B504464368984720B1236A98471030C0B210BDFFF7CAFFFFF7F2F954
:2010800065381228FAD801A353F820F0D91000087D1000087D100008611100087D1000087E
:2010A0007D1000087D1000087D1000087D1000087D1000087D100008371100085B110008EE
:2010C000031100087D1000087D1000084911000821110008EB100008236998470028CDD0FB
:2010E000236A98474030C0B2C5E71F48FFF79BFE636998470028C1D0236A98475030C0B23E
:20110000B9E71A48FFF78FFEE368984718B91848FFF789FEB2E7236A98473030C0B2AAE70A
:20112000A3699847A36998470028A7D0236A98476030C0B29FE7E369984700289ED0236AF8
:2011400098477030C0B296E7A3689847002895D0236A98472030C0B28DE7236A98478AE72B
:20116000FFF756FF8AE700BF841A0008901A0008A01A000808B5FFF72BFFFFF773F948282B
:2011800006D051280BD10C48FFF74DFE002008BDFFF71EFFF1E71046FFF764FFF7E700230F
:2011A000012BEAD8054A52F8232092F824108142F1D00133DBB2F3E7101B00080000002035
:2011C000054BD86200225A6209221A60024B1B6813F0010FFAD1704700100040094AD369BE
:2011E00023F01003D361084B1A6822F00F021A601A6842F008021A604FF480321A6100205B
:20120000704700BF001002400010014010B5154C4FF480332361236823F00F032360236857
:2012200043F00203236043F29E20FFF7C9FF01232361236823F00F032360236843F008039E
:20124000236040F26710FFF7BBFF40F29F50FFF7B7FFA46804F0010442F6FF40FFF7B0FFC4
:20126000204610BD0010014010B50446164B4FF480321A611A6822F00F021A601A6842F037
:2012800002021A607720FFF79BFF54B10E4B01221A611A6822F00F021A601A6842F00802D0
:2012A0001A6040F29F50FFF78BFF074B01221A611A6822F00F021A601A6842F008021A60CC
:2012C0007720FFF77DFF10BD0010014010B5144C4FF480332361236823F00F03236023688A
:2012E00043F0020323607720FFF76AFF01232361236823F00F032360236843F00803236016
:201300007720FFF75DFFA36813F0010F06D0012440F29F50FFF754FF204610BD0024F7E72C
:201320000010014038B50546084A137C43400849CB5C1374082406E005F00100FFF794FF30
:201340006D08013CE4B2002CF6D138BDC8060020CC1B000838B50025082401E0013CE4B28E
:2013600044B16D08FFF7B2FF0028F7D065F07F05EDB2F3E7034A137C6B400349CB5C13749A
:20138000284638BDC8060020CC1B000870B50B4D05EBC005FFF73AFF5520FFF7C3FF00245B
:2013A000074B1C7406E06E1C2878FFF7BBFF0134E4B23546072CF6D970BD00BF940600209D
:2013C000C806002070B500EBC000094D0544BE20FFF7A8FF0024074B1C7406E06E1CFFF7C9
:2013E000B9FF28700134E4B23546082CF6D970BDAC060020C8060020F8B5584A0023136082
:2014000053609360D36013615361554A136053609360D3601361C2F81330524A13605360AD
:201420009360D36013615361C2F817304E48FFF7FAFCFFF7EBFE074628B9F020FFF772FF57
:201440003D463E4640E0464B03225A744748FFF7EAFC002751E03F239D420CD2404A02EB88
:20146000D302127A03F007010A4112F0010F02D1013BDBB2F0E7C5F3C701394A0A44127A63
:2014800005F0070042FA00FC1CF0010F00D001249D4203D2B4FA84F4640908E0012303FAB7
:2014A00000F02F4B194442400A7200E03C462046FFF7DAFE14B166F07F06F6B205F007038A
:2014C000072B1ED00135EDB23F2D20D8C6F34706FFF7FCFE044600B10224FFF7F7FE10B1F0
:2014E00044F00104E4B2012CE0D0002CB3D0022C05D029461E48FFF796FC3846F8BD0124D9
:20150000D5E7C5F3C703164AD6543E46DAE7144AD37C124901EBC3001568546841F8335012
:2015200044600133D9B2D1743A4601E00137FFB2072F07D80A4B3B441B7A002BF6D0013217
:20154000D2B2F3E7022902D8002A7FF472AF0948FFF769FC024BDF7C9F74CEE79406002094
:20156000C8060020AC060020F41C0008FC1C0008081D0008141D000810B5214B9B7CDBB139
:20158000204B08221A80FFF741FECC20FFF7CAFE4420FFF7C7FE1C4B9B6813F0010F0FD1C1
:2015A00030BF184B1B88002BF5D1154B03225A741648FFF738FC02E01548FFF734FC10BD38
:2015C00000240F4B5C7401E00134E4B20C4B9B7CA342F4D92046FFF7D9FE2046FFF7F2FE72
:2015E000074B1B7C002BEFD0054B02225A74094A04EBC403D118F020D054EE234B70E3E71A
:20160000C80600208405002000100140D41C0008CC1C0008AC06002010B5134AD36943F097
:201620001003D361114B00229A6203F5803301221A611A6822F00F021A601A6842F00802C3
:201640001A60FFF7E3FD10B10124204610BD0446FFF7D2FE28B1064BDA7C9A74FFF78CFF02
:20166000F3E70224F1E700BF0010024000100040C806002010B504460D48FFF7D4FB002CEE
:2016800010DBC4F307110B48FFF7CDFB04F00F0404EB840404EB8404A10009090648FFF793
:2016A000C2FB10BD0548FFF7BEFB644224B2E8E7DC1C0008E81C0008EC1C0008E41C000835
:2016C000044B00EBC0001A185278185C40EA022000B27047AC060020014BD87C704700BF03
:2016E000C8060020002103E00B4B5B58435004310A480B4B42189A42F6D30A4A02E0002327
:2017000042F8043B084B9A42F9D3FEF7BBFE00F00FF8FEF7A3FD7047301D000800000020EF
:20172000340400203404002004070020FEE7000070B50D4E0D4D761BB61006D00024013489
:2017400055F8043B9847A642F9D1094E094D00F0A1F8761BB61006D00024013455F8043B24
:201760009847A642F9D170BD241D0008241D00082C1D0008241D0008024B13B1024800F034
:2017800005B870470000000099170008002301461A46184600F01EB838B50A4C0A4D641B16
:2017A000A4100AD004F18043013B05EB8305013C55F804399847002CF9D1BDE8384000F086
:2017C0006FB800BF301D00082C1D0008704700BF704700BF2DE9F8432B4D0646286898460E
:2017E0000F469146FFF7F2FF284B1C68D4F84831002B3DD05A681F2A0DDC02F1010C16BB9D
:201800000232C3F804C0286843F82270FFF7E0FF0020BDE8F8831E4B7BB34FF4C870AFF3EF
:201820000080034648B30020D4F848114FF0010CC3E900100246C4F84831C3F88801C3F81B
:201840008C01002EDCD0012103EB8204C4F88890D3F8880191400843022EC3F88801C4F817
:201860000881CDD1D3F88C010143C3F88C11C7E704F5A673C4F84831BCE72868FFF7A8FF88
:201880004FF0FF30C5E700BF30040020201D000800000000F8B500BFF8BC08BC9E46704757
:2018A000F8B500BFF8BC08BC9E4670470A0A53544D33324631303020466C61736865720A76
:2018C00000000000426F6F744C6F616465723A204E6F7420696D706C656D656E7465640AD4
:2018E00000000000466C61736865722E2E2E00004572726F72203078253032780A000000BE
:2019000052463A204E6F7420696D706C656D656E7465640A00000000445331384232302022
:2019200074656D70657261747572650A0000000053544D333246313030206D6F6E69746F09
:201940007220256C750A00000A53544D33322055534220466C617368204C6F616465720AE9
:20196000000000002048202D2048656C700A00002055202D205553422D5253323332202882
:201980004374726C2D4320656E64290A000000002050202D204D435520464C415348204CFC
:2019A0004F414445520A00002052202D205553422D524144494F20284374726C2D4320657B
:2019C0006E64290A000000002054202D204453313842323020285120656E64290A0000005A
:2019E0002042202D2053656C6620426F6F744C6F616465720A000000546F74616C203A20FB
:201A0000256C750A0000000025752D25752D25752025752025753A25753A25750A00000068
:201A20006E4453203D2025752000000054202D206D6561737572652C2051202D207175695E
:201A4000740A00000A5541525432205041322854582920504133285258293E737461727465
:201A6000203A000020256C75000000002025750020253032580A00001F1C1F1E1F1E1F1F30
:201A80001E1F1E1F50726F672E2E2E0A0000000052656164204164722E2E2E0A0000000059
:201AA0004F4B0A002068202D2048656C700A00002075202D20556E50726F746563740A004A
:201AC0002072202D20526561640A00002065202D2045726173650A002077202D205772695F
:201AE00074650A002076202D205665726966790A000000002070202D2050726F74656374A3
:201B00000A0000002071202D20517569740A0000515549540A000000557365724578616D99
:201B2000706C65205445535400000000181B0008690F00085D0F0008790F0008A90F000885
:201B4000890F0008610F0008650F0008990F0008300000005573657245726173652061748D
:201B600020000000416464722030782530386C780A00000055736572457869740A00000044
:201B800055736572496E69740A00000055736572526561640A00000055736572577269749E
:201BA000650A00000A0D202048202D2048454C500A0000002563202D2025730A00000000E0
:201BC000202051202D20515549540A00005EBCE2613FDD83C29C7E20A3FD1F419DC3217FC2
:201BE000FCA2401E5F01E3BD3E6082DC237D9FC1421CFEA0E1BF5D0380DE3C62BEE0025CF9
:201C0000DF81633D7C22C09E1D43A1FF4618FAA427799BC584DA3866E5BB5907DB856739D0
:201C2000BAE406581947A5FB7826C49A653BD987045AB8E6A7F91B45C6987A24F8A6441AB8
:201C400099C7257B3A6486D85B05E7B98CD2306EEDB3510F4E10F2AC2F7193CD114FADF390
:201C6000702ECC92D38D6F31B2EC0E50AFF1134DCE90722C6D33D18F0C52B0EE326C8ED078
:201C8000530DEFB1F0AE4C1291CF2D73CA947628ABF517490856B4EA6937D58B5709EBB550
:201CA00036688AD495CB2977F4AA4816E9B7550B88D6346A2B7597C94A14F6A8742AC89638
:201CC000154BA9F7B6E80A54D7896B354E4F2044530A00004451204552520A0054203D2031
:201CE000000000002D00000025752E00253032752000000053454152434820004552524FC5
:201D00005220300A000000004552524F5220312025750A00544F54414C2025750A00000030
:201D20000800002079170008F5010008D10100082C1B00082C1B000800000000F402002057
:201D40005C030020C40300200000000000000000000000000000000000000000000000001D
:201D6000000000000000000000000000000000000000000000000000000000000000000063
:201D8000000000000000000000000000000000000000000000000000000000000000000043
:201DA000000000000000000000000000000000000000000000000000000000000000000023
:201DC000000000000000000000000000000000000000000000000000000000000000000003
:201DE00001000000000000000E33CDAB34126DE6ECDE05000B0000000000000000000000B6
:201E00000000000000000000000000000000000000000000000000000000000000000000C2
:201E20000000000000000000000000000000000000000000000000000000000000000000A2
:201E4000000000000000000000000000000000000000000000000000000000000000000082
:201E6000000000000000000000000000000000000000000000000000000000000000000062
:201E8000000000000000000000000000000000000000000000000000000000000000000042
:201EA000000000000000000000000000000000000000000000000000000000000000000022
:201EC000000000000000000000000000000000000000000000000000000000000000000002
:201EE0000000000000000000000000000000000000000000000000000000000000000000E2
:201F00000000000000000000000000000000000000000000000000000000000000000000C1
:201F20000000000000000000000000000000000000000000000000000000000000000000A1
:201F4000000000000000000000000000000000000000000000000000000000000000000081
:201F6000000000000000000000000000000000000000000000000000000000000000000061
:201F8000000000000000000000000000000000000000000000000000000000000000000041
:201FA000000000000000000000000000000000000000000000000000000000000000000021
:201FC000000000000000000000000000000000000000000000000000000000000000000001
:201FE0000000000000000000000000000000000000000000000000000000000000000000E1
:202000000000000000000000000000000000000000000000000000000000000000000000C0
:202020000000000000000000000000000000000000000000000000000000000000000000A0
:20204000000000000000000000000000000000000000000000000000000000000000000080
:20206000000000000000000000000000000000000000000000000000000000000000000060
:20208000000000000000000000000000000000000000000000000000000000000000000040
:2020A000000000000000000000000000000000000000000000000000000000000000000020
:2020C000000000000000000000000000000000000000000000000000000000000000000000
:2020E0000000000000000000000000000000000000000000000000000000000000000000E0
:202100000000000000000000000000000000000000000000000000000000000000000000BF
:2021200000000000000000000000000000000000000000000000000000000000000000009F
:2021400000000000000000000000000000000000000000000000000000000000000000007F
:04216000E006002075
:04000005080016E5F4
:00000001FF
